{
  "contractName": "CaringDeployer",
  "abi": [
    {
      "inputs": [
        {
          "internalType": "address",
          "name": "_caringImplementation",
          "type": "address"
        },
        {
          "internalType": "uint256",
          "name": "_creatorFee",
          "type": "uint256"
        }
      ],
      "stateMutability": "nonpayable",
      "type": "constructor"
    },
    {
      "anonymous": false,
      "inputs": [
        {
          "indexed": false,
          "internalType": "address",
          "name": "_caller",
          "type": "address"
        },
        {
          "indexed": false,
          "internalType": "address",
          "name": "_deployed",
          "type": "address"
        }
      ],
      "name": "CaringIssued",
      "type": "event"
    },
    {
      "inputs": [
        {
          "internalType": "address",
          "name": "_manager",
          "type": "address"
        },
        {
          "internalType": "string",
          "name": "_contractName",
          "type": "string"
        },
        {
          "internalType": "bool",
          "name": "_onlyMembersDeposit",
          "type": "bool"
        },
        {
          "internalType": "bool",
          "name": "_multiSig",
          "type": "bool"
        }
      ],
      "name": "deployCaringContract",
      "outputs": [
        {
          "internalType": "address",
          "name": "",
          "type": "address"
        }
      ],
      "stateMutability": "payable",
      "type": "function"
    },
    {
      "inputs": [],
      "name": "redeemFee",
      "outputs": [],
      "stateMutability": "nonpayable",
      "type": "function"
    },
    {
      "inputs": [
        {
          "internalType": "uint256",
          "name": "_fee",
          "type": "uint256"
        }
      ],
      "name": "setCreatorFee",
      "outputs": [],
      "stateMutability": "nonpayable",
      "type": "function"
    },
    {
      "inputs": [],
      "name": "getCaringImplementation",
      "outputs": [
        {
          "internalType": "address",
          "name": "",
          "type": "address"
        }
      ],
      "stateMutability": "view",
      "type": "function"
    },
    {
      "inputs": [],
      "name": "getCreatorFee",
      "outputs": [
        {
          "internalType": "uint256",
          "name": "",
          "type": "uint256"
        }
      ],
      "stateMutability": "view",
      "type": "function"
    }
  ],
  "bytecode": "0x60a060405234801561001057600080fd5b50604051611cb9380380611cb98339818101604052604081101561003357600080fd5b508051602090910151600160a060020a03821661009b576040517f08c379a000000000000000000000000000000000000000000000000000000000815260040180806020018281038252602a815260200180611c8f602a913960400191505060405180910390fd5b6c01000000000000000000000000600160a060020a039092169190910260805260008054600160a060020a031916331790556001556080516c010000000000000000000000009004611b956100fa600039806104b05250611b956000f3fe608060405260043610610066577c010000000000000000000000000000000000000000000000000000000060003504630dd16fd5811461006b5780633292f0f6146100975780635a5b0f5614610172578063965fa21e14610199578063d77b489b146101ae575b600080fd5b34801561007757600080fd5b506100956004803603602081101561008e57600080fd5b50356101c3565b005b610156600480360360808110156100ad57600080fd5b600160a060020a0382351691908101906040810160208201356401000000008111156100d857600080fd5b8201836020820111156100ea57600080fd5b8035906020019184600183028401116401000000008311171561010c57600080fd5b91908080601f01602080910402602001604051908101604052809392919081815260200183838082843760009201919091525092955050505080351515915060200135151561022a565b60408051600160a060020a039092168252519081900360200190f35b34801561017e57600080fd5b50610187610408565b60408051918252519081900360200190f35b3480156101a557600080fd5b5061009561040e565b3480156101ba57600080fd5b506101566104ae565b600054600160a060020a03163314610225576040805160e560020a62461bcd02815260206004820181905260248201527f436172696e674465706c6f7965723a204e6f74207468652063726561746f7221604482015290519081900360640190fd5b600155565b60006001543410156102705760405160e560020a62461bcd028152600401808060200182810382526073815260200180611ac46073913960800191505060405180910390fd5b600085858585604051610282906104d2565b600160a060020a03851681528215156040820152811515606082015260806020808301828152865192840192909252855160a084019187019080838360005b838110156102d95781810151838201526020016102c1565b50505050905090810190601f1680156103065780820380516001836020036101000a031916815260200191505b5095505050505050604051809103906000f08015801561032a573d6000803e3d6000fd5b509050600160a060020a0381166103755760405160e560020a62461bcd028152600401808060200182810382526029815260200180611b376029913960400191505060405180910390fd5b60408051338152600160a060020a038316602082015281517f108eaba6a3b4e16db3a1cb0b0fbdb4e5202cb12dd49a4d6e2b3b7ca2f37623d5929181900390910190a160025460ff16156103ff5760008054604051600160a060020a03909116913480156108fc02929091818181858888f193505050501580156103fd573d6000803e3d6000fd5b505b95945050505050565b60015490565b600054600160a060020a03163314610470576040805160e560020a62461bcd02815260206004820181905260248201527f436172696e674465706c6f7965723a204e6f74207468652063726561746f7221604482015290519081900360640190fd5b60008054604051600160a060020a0390911691303180156108fc02929091818181858888f193505050501580156104ab573d6000803e3d6000fd5b50565b7f000000000000000000000000000000000000000000000000000000000000000090565b6115e4806104e08339019056fe60806040523480156200001157600080fd5b50604051620015e4380380620015e4833981810160405260808110156200003757600080fd5b8151602083018051604051929492938301929190846401000000008211156200005f57600080fd5b9083019060208201858111156200007557600080fd5b82516401000000008111828201881017156200009057600080fd5b82525081516020918201929091019080838360005b83811015620000bf578181015183820152602001620000a5565b50505050905090810190601f168015620000ed5780820380516001836020036101000a031916815260200191505b50604090815260208201519101519092509050600160a060020a0384166200017657604080517f08c379a000000000000000000000000000000000000000000000000000000000815260206004820152601c60248201527f436172696e673a204d75737420686176652061206d616e616765722100000000604482015290519081900360640190fd5b8251620001cf576040517f08c379a0000000000000000000000000000000000000000000000000000000008152600401808060200182810382526028815260200180620015bc6028913960400191505060405180910390fd5b8251620001e4906002906020860190620002b1565b506003805492151560ff199384161790556001600481905560058054921515929093169190911790915560065550600160a060020a03166000818152602081905260409020805460b060020a60ff021960a860020a60ff021960a060020a60ff0219600160a060020a031990931690941791909116740100000000000000000000000000000000000000001792909216750100000000000000000000000000000000000000000017919091167601000000000000000000000000000000000000000000001790556200035d565b828054600181600116156101000203166002900490600052602060002090601f016020900481019282620002e9576000855562000334565b82601f106200030457805160ff191683800117855562000334565b8280016001018555821562000334579182015b828111156200033457825182559160200191906001019062000317565b506200034292915062000346565b5090565b5b8082111562000342576000815560010162000347565b61124f806200036d6000396000f3fe608060405260043610610161576000357c010000000000000000000000000000000000000000000000000000000090048063a4293ead116100d3578063c1923d911161008c578063c1923d9114610540578063c8a2a9db14610555578063e05b934114610590578063ec054eaa146105d3578063f06d1fa314610606578063f3ae2415146106395761020d565b8063a4293ead146103ff578063aa23e03d14610442578063ac18de43146104cc578063afa66e8a146104ff578063b31c220d14610514578063b329bf5c146102d05761020d565b80638b62f7ec116101255780638b62f7ec146102fa5780638d7e7e71146103215780638f1803051461035c5780638fabe4ff1461037157806391abf42f146103a3578063a230c524146103cc5761020d565b80630b1ca49a146102125780632d06177a146102475780634655b1441461027a57806355c4f065146102a65780635a197c78146102d05761020d565b3661020d5733600090815260208190526040902054600160a060020a031615801561018e575060035460ff165b156101d1576040805160e560020a62461bcd0281526020600482015260196024820152600080516020611187833981519152604482015290519081900360640190fd5b6040805133815234602082015281517fe1fffcc4923d04b559f4d29a8bfc6cda04eb5b0d3c460751c2402c5c5cc9109c929181900390910190a1005b600080fd5b34801561021e57600080fd5b506102456004803603602081101561023557600080fd5b5035600160a060020a031661066c565b005b34801561025357600080fd5b506102456004803603602081101561026a57600080fd5b5035600160a060020a0316610709565b34801561028657600080fd5b506102456004803603602081101561029d57600080fd5b503515156107cb565b3480156102b257600080fd5b50610245600480360360208110156102c957600080fd5b503561083a565b3480156102dc57600080fd5b50610245600480360360208110156102f357600080fd5b50356108eb565b34801561030657600080fd5b5061030f610959565b60408051918252519081900360200190f35b34801561032d57600080fd5b506102456004803603604081101561034457600080fd5b50600160a060020a038135169060200135151561095f565b34801561036857600080fd5b5061030f610a16565b34801561037d57600080fd5b506102456004803603604081101561039457600080fd5b50803590602001351515610a1c565b3480156103af57600080fd5b506103b8610a8b565b604080519115158252519081900360200190f35b3480156103d857600080fd5b506103b8600480360360208110156103ef57600080fd5b5035600160a060020a0316610a94565b34801561040b57600080fd5b5061030f6004803603606081101561042257600080fd5b50600160a060020a03813581169160208101359091169060400135610ab4565b34801561044e57600080fd5b50610457610c44565b6040805160208082528351818301528351919283929083019185019080838360005b83811015610491578181015183820152602001610479565b50505050905090810190601f1680156104be5780820380516001836020036101000a031916815260200191505b509250505060405180910390f35b3480156104d857600080fd5b50610245600480360360208110156104ef57600080fd5b5035600160a060020a0316610cd7565b34801561050b57600080fd5b5061030f610db3565b34801561052057600080fd5b506102456004803603602081101561053757600080fd5b50351515610db9565b34801561054c57600080fd5b506103b8610e28565b34801561056157600080fd5b506102456004803603604081101561057857600080fd5b50600160a060020a0381351690602001351515610e31565b34801561059c57600080fd5b50610245600480360360608110156105b357600080fd5b50600160a060020a03813516906020810135151590604001351515610ee6565b3480156105df57600080fd5b506103b8600480360360208110156105f657600080fd5b5035600160a060020a0316610ffd565b34801561061257600080fd5b506103b86004803603602081101561062957600080fd5b5035600160a060020a0316611035565b34801561064557600080fd5b506103b86004803603602081101561065c57600080fd5b5035600160a060020a031661106c565b3360009081526020819052604090205460a060020a900460ff166106c8576040805160e560020a62461bcd02815260206004820152601c60248201526000805160206111ce833981519152604482015290519081900360640190fd5b600160a060020a03166000908152602081905260409020805476ffffffffffffffffffffffffffffffffffffffffffffff1916905560048054600019019055565b3360009081526020819052604090205460a060020a900460ff16610765576040805160e560020a62461bcd02815260206004820152601c60248201526000805160206111ce833981519152604482015290519081900360640190fd5b600160a060020a03818116600090815260208190526040902054166107905761079081600180610ee6565b600160a060020a03166000908152602081905260409020805474ff0000000000000000000000000000000000000000191660a060020a179055565b3360009081526020819052604090205460a060020a900460ff16610827576040805160e560020a62461bcd02815260206004820152601c60248201526000805160206111ce833981519152604482015290519081900360640190fd5b6005805460ff1916911515919091179055565b3360009081526020819052604090205460a060020a900460ff16610896576040805160e560020a62461bcd02815260206004820152601c60248201526000805160206111ce833981519152604482015290519081900360640190fd5b60045481111580156108a85750600081115b6108e65760405160e560020a62461bcd0281526004018080602001828103825260278152602001806111a76027913960400191505060405180910390fd5b600655565b33600090815260208190526040902054600160a060020a0316158015610913575060035460ff165b15610956576040805160e560020a62461bcd0281526020600482015260196024820152600080516020611187833981519152604482015290519081900360640190fd5b50565b60075490565b3360009081526020819052604090205460a060020a900460ff166109bb576040805160e560020a62461bcd02815260206004820152601c60248201526000805160206111ce833981519152604482015290519081900360640190fd5b600160a060020a03909116600090815260208190526040902080549115157601000000000000000000000000000000000000000000000276ff0000000000000000000000000000000000000000000019909216919091179055565b60045490565b33600090815260208190526040902054600160a060020a0316158015610a44575060035460ff165b15610a87576040805160e560020a62461bcd0281526020600482015260196024820152600080516020611187833981519152604482015290519081900360640190fd5b5050565b60035460ff1690565b600160a060020a0390811660009081526020819052604090205416151590565b33600090815260208190526040812054600160a060020a0316158015610adc575060035460ff165b15610b1f576040805160e560020a62461bcd0281526020600482015260196024820152600080516020611187833981519152604482015290519081900360640190fd5b600160a060020a038316610b6f5730318210610b6f5760405160e560020a62461bcd0281526004018080602001828103825260278152602001806111606027913960400191505060405180910390fd5b6040805133602080830191909152600160a060020a03808816838501528616606083015260808083018690528351808403909101815260a09092019092528051910120610bba6110a7565b338152600160a060020a0386811660208301528516604082015260608101849052610be481611091565b60408051338152600160a060020a038089166020830152871681830152606081018690526080810184905290517f518e33f7cbc225c09d8bc106c7be36174dc86032f12d97c7ef8242a4c630390c9181900360a00190a150949350505050565b60028054604080516020601f6000196101006001871615020190941685900493840181900481028201810190925282815260609390929091830182828015610ccd5780601f10610ca257610100808354040283529160200191610ccd565b820191906000526020600020905b815481529060010190602001808311610cb057829003601f168201915b5050505050905090565b3360009081526020819052604090205460a060020a900460ff16610d33576040805160e560020a62461bcd02815260206004820152601c60248201526000805160206111ce833981519152604482015290519081900360640190fd5b33600160a060020a0382161415610d7e5760405160e560020a62461bcd02815260040180806020018281038252602c8152602001806111ee602c913960400191505060405180910390fd5b600160a060020a03166000908152602081905260409020805474ff000000000000000000000000000000000000000019169055565b60065490565b3360009081526020819052604090205460a060020a900460ff16610e15576040805160e560020a62461bcd02815260206004820152601c60248201526000805160206111ce833981519152604482015290519081900360640190fd5b6003805460ff1916911515919091179055565b60055460ff1690565b3360009081526020819052604090205460a060020a900460ff16610e8d576040805160e560020a62461bcd02815260206004820152601c60248201526000805160206111ce833981519152604482015290519081900360640190fd5b600160a060020a039091166000908152602081905260409020805491151575010000000000000000000000000000000000000000000275ff00000000000000000000000000000000000000000019909216919091179055565b3360009081526020819052604090205460a060020a900460ff16610f42576040805160e560020a62461bcd02815260206004820152601c60248201526000805160206111ce833981519152604482015290519081900360640190fd5b600160a060020a03929092166000818152602081905260409020805473ffffffffffffffffffffffffffffffffffffffff191690911775ff00000000000000000000000000000000000000000019167501000000000000000000000000000000000000000000921515929092029190911776ff00000000000000000000000000000000000000000000191676010000000000000000000000000000000000000000000092151592909202919091179055600480546001019055565b600160a060020a0316600090815260208190526040902054760100000000000000000000000000000000000000000000900460ff1690565b600160a060020a03166000908152602081905260409020547501000000000000000000000000000000000000000000900460ff1690565b600160a060020a031660009081526020819052604090205460a060020a900460ff1690565b3360009081526001602052604090208054829190fe5b6040518060c001604052806000600160a060020a031681526020016000600160a060020a031681526020016000600160a060020a031681526020016000815260200160608152602001606081525090565b8281111561113a578251825473ffffffffffffffffffffffffffffffffffffffff1916600160a060020a039091161782556020909201916001909101906110f8565b5061114692915061114a565b5090565b5b80821115611146576000815560010161114b56fe436172696e673a20496e73756666696369656e742066756e647320746f20776974686472617721436172696e673a204d7573742062652061206d656d6265722100000000000000436172696e673a20496e76616c6964206d696e696d756d206d756c74692d7369676e6174757265436172696e673a204d75737420626520746865206d616e616765722100000000436172696e673a2043616e6e6f742072656d6f7665206d616e616765722066726f6d20796f757273656c6621a2646970667358221220031ac6569bab70a5a034cf853b0ae7a7f72bdc5aae73352a6c15731e0762f95564736f6c63430007040033436172696e673a204d7573742068617665206120636f6e7472616374206964656e74696669657221436172696e674465706c6f7965723a20446f6573206e6f74206d656574207468652063726561746f72206665652028736572766963652066656529212043616c6c2067657443726561746f7246656520746f20636865636b206d696e696d756d20726571756972656420696e2045746865722e436172696e674465706c6f7965723a20436f6e7472616374206372656174696f6e206661696c656421a264697066735822122049adb36f109acb7b207690280e60182ec6383d4ae9be914dfb8af72720f3483564736f6c63430007040033436172696e674465706c6f7965723a20416464726573732069732061207a65726f206164647265737321",
  "immutableReferences": {
    "718": [
      {
        "length": 32,
        "start": 1200
      }
    ]
  },
  "source": "// SPDX-License-Identifier: MIT\r\n// Project Sharing by Alpha Serpentis Developments - https://github.com/Alpha-Serpentis-Developments\r\n// Written by Amethyst C.\r\n\r\npragma solidity =0.7.4;\r\n\r\nimport \"./Caring.sol\";\r\n\r\ncontract CaringDeployer {\r\n\r\n    address immutable private CaringImplementation;\r\n    address payable creator;\r\n\r\n    uint256 private creatorFee; // Aka the deploying fee, in wei units\r\n    bool private sendDirect;\r\n\r\n    modifier onlyCreator {\r\n        if(msg.sender != creator) {\r\n            revert(\"CaringDeployer: Not the creator!\");\r\n        }\r\n        _;\r\n    }\r\n    modifier meetCreatorFee {\r\n        if(msg.value < creatorFee) {\r\n            revert(\"CaringDeployer: Does not meet the creator fee (service fee)! Call getCreatorFee to check minimum required in Ether.\");\r\n        }\r\n        _;\r\n    }\r\n\r\n    event CaringIssued(address _caller, address _deployed);\r\n\r\n    constructor(address _caringImplementation, uint256 _creatorFee) {\r\n        require(_caringImplementation != address(0), \"CaringDeployer: Address is a zero address!\");\r\n\r\n        CaringImplementation = _caringImplementation;\r\n        creator = msg.sender;\r\n        creatorFee = _creatorFee;\r\n    }\r\n\r\n    function deployCaringContract(address _manager, string memory _contractName, bool _onlyMembersDeposit, bool _multiSig) external payable meetCreatorFee returns(address) {\r\n\r\n        address deployed = address(new Caring(_manager, _contractName, _onlyMembersDeposit, _multiSig));\r\n        require(deployed != address(0), \"CaringDeployer: Contract creation failed!\");\r\n        emit CaringIssued(msg.sender, deployed);\r\n\r\n        if(sendDirect)\r\n            creator.transfer(msg.value);\r\n\r\n        return deployed;\r\n    }\r\n    function redeemFee() public onlyCreator {\r\n        creator.transfer(address(this).balance);\r\n    }\r\n\r\n    function setCreatorFee(uint256 _fee) external onlyCreator {\r\n        creatorFee = _fee;\r\n    }\r\n\r\n    function getCaringImplementation() public view returns(address) {\r\n        return CaringImplementation;\r\n    }\r\n    function getCreatorFee() public view returns(uint256) {\r\n        return creatorFee;\r\n    }\r\n\r\n}\r\n",
  "sourcePath": "D:/GitHub/Project-Sharing/contracts/caring/CaringDeployer.sol",
  "compiler": {
    "name": "solc",
    "version": "0.7.4+commit.3f05b770.Emscripten.clang"
  },
  "schemaVersion": "3.3.2",
  "updatedAt": "2020-11-23T05:25:37.586Z",
  "devdoc": {
    "kind": "dev",
    "methods": {},
    "version": 1
  },
  "userdoc": {
    "kind": "user",
    "methods": {},
    "version": 1
  }
}