{
  "contractName": "Caring",
  "abi": [
    {
      "inputs": [
        {
          "internalType": "address",
          "name": "_manager",
          "type": "address"
        },
        {
          "internalType": "uint256",
          "name": "_maxManagers",
          "type": "uint256"
        },
        {
          "internalType": "string",
          "name": "_contractName",
          "type": "string"
        },
        {
          "internalType": "bool",
          "name": "_onlyMembersDeposit",
          "type": "bool"
        },
        {
          "internalType": "bool",
          "name": "_multiSig",
          "type": "bool"
        }
      ],
      "stateMutability": "nonpayable",
      "type": "constructor"
    },
    {
      "anonymous": false,
      "inputs": [
        {
          "indexed": false,
          "internalType": "address",
          "name": "_from",
          "type": "address"
        },
        {
          "indexed": false,
          "internalType": "uint256",
          "name": "amount",
          "type": "uint256"
        }
      ],
      "name": "Deposit",
      "type": "event"
    },
    {
      "anonymous": false,
      "inputs": [
        {
          "indexed": false,
          "internalType": "address",
          "name": "_from",
          "type": "address"
        },
        {
          "indexed": false,
          "internalType": "address",
          "name": "_to",
          "type": "address"
        },
        {
          "indexed": false,
          "internalType": "address",
          "name": "_token",
          "type": "address"
        },
        {
          "indexed": false,
          "internalType": "uint256",
          "name": "_amount",
          "type": "uint256"
        },
        {
          "indexed": false,
          "internalType": "uint256",
          "name": "_nonce",
          "type": "uint256"
        },
        {
          "indexed": false,
          "internalType": "bytes32",
          "name": "_transferId",
          "type": "bytes32"
        }
      ],
      "name": "PendingTransfer",
      "type": "event"
    },
    {
      "anonymous": false,
      "inputs": [
        {
          "indexed": false,
          "internalType": "address",
          "name": "_from",
          "type": "address"
        },
        {
          "indexed": false,
          "internalType": "bytes32",
          "name": "_transferId",
          "type": "bytes32"
        }
      ],
      "name": "TransferCancelled",
      "type": "event"
    },
    {
      "anonymous": false,
      "inputs": [
        {
          "indexed": false,
          "internalType": "address",
          "name": "_from",
          "type": "address"
        },
        {
          "indexed": false,
          "internalType": "address",
          "name": "_to",
          "type": "address"
        },
        {
          "indexed": false,
          "internalType": "address",
          "name": "_token",
          "type": "address"
        },
        {
          "indexed": false,
          "internalType": "bool",
          "name": "_success",
          "type": "bool"
        }
      ],
      "name": "TransferExecute",
      "type": "event"
    },
    {
      "anonymous": false,
      "inputs": [
        {
          "indexed": false,
          "internalType": "address",
          "name": "_from",
          "type": "address"
        },
        {
          "indexed": false,
          "internalType": "address",
          "name": "_to",
          "type": "address"
        },
        {
          "indexed": false,
          "internalType": "uint256",
          "name": "_amount",
          "type": "uint256"
        }
      ],
      "name": "Withdrawal",
      "type": "event"
    },
    {
      "stateMutability": "payable",
      "type": "receive"
    },
    {
      "inputs": [
        {
          "internalType": "address payable",
          "name": "_to",
          "type": "address"
        },
        {
          "internalType": "address",
          "name": "_token",
          "type": "address"
        },
        {
          "internalType": "uint256",
          "name": "_amount",
          "type": "uint256"
        }
      ],
      "name": "requestTransfer",
      "outputs": [
        {
          "internalType": "bytes32",
          "name": "",
          "type": "bytes32"
        }
      ],
      "stateMutability": "nonpayable",
      "type": "function"
    },
    {
      "inputs": [
        {
          "internalType": "bytes32",
          "name": "_index",
          "type": "bytes32"
        },
        {
          "internalType": "bool",
          "name": "_approve",
          "type": "bool"
        }
      ],
      "name": "approveTransfer",
      "outputs": [],
      "stateMutability": "nonpayable",
      "type": "function"
    },
    {
      "inputs": [
        {
          "internalType": "bytes32",
          "name": "_index",
          "type": "bytes32"
        }
      ],
      "name": "attemptTransfer",
      "outputs": [],
      "stateMutability": "nonpayable",
      "type": "function"
    },
    {
      "inputs": [
        {
          "internalType": "bytes32",
          "name": "_index",
          "type": "bytes32"
        }
      ],
      "name": "manualCancelTransfer",
      "outputs": [],
      "stateMutability": "nonpayable",
      "type": "function"
    },
    {
      "inputs": [
        {
          "internalType": "address",
          "name": "_member",
          "type": "address"
        },
        {
          "internalType": "bool",
          "name": "_allowDeposit",
          "type": "bool"
        },
        {
          "internalType": "bool",
          "name": "_allowWithdrawal",
          "type": "bool"
        }
      ],
      "name": "addMember",
      "outputs": [],
      "stateMutability": "nonpayable",
      "type": "function"
    },
    {
      "inputs": [
        {
          "internalType": "address",
          "name": "_member",
          "type": "address"
        }
      ],
      "name": "removeMember",
      "outputs": [],
      "stateMutability": "nonpayable",
      "type": "function"
    },
    {
      "inputs": [
        {
          "internalType": "address",
          "name": "_newManager",
          "type": "address"
        }
      ],
      "name": "addManager",
      "outputs": [],
      "stateMutability": "nonpayable",
      "type": "function"
    },
    {
      "inputs": [
        {
          "internalType": "address",
          "name": "_manager",
          "type": "address"
        }
      ],
      "name": "removeManager",
      "outputs": [],
      "stateMutability": "nonpayable",
      "type": "function"
    },
    {
      "inputs": [
        {
          "internalType": "address",
          "name": "_member",
          "type": "address"
        },
        {
          "internalType": "bool",
          "name": "_allowed",
          "type": "bool"
        }
      ],
      "name": "setMemberAllowedToDeposit",
      "outputs": [],
      "stateMutability": "nonpayable",
      "type": "function"
    },
    {
      "inputs": [
        {
          "internalType": "address",
          "name": "_member",
          "type": "address"
        },
        {
          "internalType": "bool",
          "name": "_allowed",
          "type": "bool"
        }
      ],
      "name": "setMemberAllowedToWithdraw",
      "outputs": [],
      "stateMutability": "nonpayable",
      "type": "function"
    },
    {
      "inputs": [
        {
          "internalType": "bool",
          "name": "_allow",
          "type": "bool"
        }
      ],
      "name": "setOnlyMemberDeposit",
      "outputs": [],
      "stateMutability": "nonpayable",
      "type": "function"
    },
    {
      "inputs": [
        {
          "internalType": "bool",
          "name": "_enable",
          "type": "bool"
        }
      ],
      "name": "setMultiSig",
      "outputs": [],
      "stateMutability": "nonpayable",
      "type": "function"
    },
    {
      "inputs": [
        {
          "internalType": "uint256",
          "name": "_amount",
          "type": "uint256"
        },
        {
          "internalType": "bool",
          "name": "_useSuggested",
          "type": "bool"
        }
      ],
      "name": "setMinimumMultiSig",
      "outputs": [],
      "stateMutability": "nonpayable",
      "type": "function"
    },
    {
      "inputs": [
        {
          "internalType": "uint256",
          "name": "_count",
          "type": "uint256"
        }
      ],
      "name": "suggestedSigners",
      "outputs": [
        {
          "internalType": "uint256",
          "name": "",
          "type": "uint256"
        }
      ],
      "stateMutability": "pure",
      "type": "function"
    },
    {
      "inputs": [],
      "name": "getIdentifier",
      "outputs": [
        {
          "internalType": "string",
          "name": "",
          "type": "string"
        }
      ],
      "stateMutability": "view",
      "type": "function"
    },
    {
      "inputs": [],
      "name": "isOnlyMemberDeposits",
      "outputs": [
        {
          "internalType": "bool",
          "name": "",
          "type": "bool"
        }
      ],
      "stateMutability": "view",
      "type": "function"
    },
    {
      "inputs": [],
      "name": "getTotalMembers",
      "outputs": [
        {
          "internalType": "uint256",
          "name": "",
          "type": "uint256"
        }
      ],
      "stateMutability": "view",
      "type": "function"
    },
    {
      "inputs": [],
      "name": "isMultiSig",
      "outputs": [
        {
          "internalType": "bool",
          "name": "",
          "type": "bool"
        }
      ],
      "stateMutability": "view",
      "type": "function"
    },
    {
      "inputs": [],
      "name": "getMinimumSig",
      "outputs": [
        {
          "internalType": "uint256",
          "name": "",
          "type": "uint256"
        }
      ],
      "stateMutability": "view",
      "type": "function"
    },
    {
      "inputs": [],
      "name": "getPendingTransferCount",
      "outputs": [
        {
          "internalType": "uint256",
          "name": "",
          "type": "uint256"
        }
      ],
      "stateMutability": "view",
      "type": "function"
    },
    {
      "inputs": [
        {
          "internalType": "address",
          "name": "_address",
          "type": "address"
        }
      ],
      "name": "isMember",
      "outputs": [
        {
          "internalType": "bool",
          "name": "",
          "type": "bool"
        }
      ],
      "stateMutability": "view",
      "type": "function"
    },
    {
      "inputs": [
        {
          "internalType": "address",
          "name": "_address",
          "type": "address"
        }
      ],
      "name": "isMemberAllowedToDeposit",
      "outputs": [
        {
          "internalType": "bool",
          "name": "",
          "type": "bool"
        }
      ],
      "stateMutability": "view",
      "type": "function"
    },
    {
      "inputs": [
        {
          "internalType": "address",
          "name": "_address",
          "type": "address"
        }
      ],
      "name": "isMemberAllowedToWithdraw",
      "outputs": [
        {
          "internalType": "bool",
          "name": "",
          "type": "bool"
        }
      ],
      "stateMutability": "view",
      "type": "function"
    },
    {
      "inputs": [
        {
          "internalType": "address",
          "name": "_address",
          "type": "address"
        }
      ],
      "name": "isManager",
      "outputs": [
        {
          "internalType": "bool",
          "name": "",
          "type": "bool"
        }
      ],
      "stateMutability": "view",
      "type": "function"
    }
  ],
  "bytecode": "0x60a06040523480156200001157600080fd5b506040516200207238038062002072833981810160405260a08110156200003757600080fd5b815160208301516040808501805191519395929483019291846401000000008211156200006357600080fd5b9083019060208201858111156200007957600080fd5b82516401000000008111828201881017156200009457600080fd5b82525081516020918201929091019080838360005b83811015620000c3578181015183820152602001620000a9565b50505050905090810190601f168015620000f15780820380516001836020036101000a031916815260200191505b50604090815260208201519101519092509050600160a060020a0385166200017a57604080517f08c379a000000000000000000000000000000000000000000000000000000000815260206004820152601c60248201527f436172696e673a204d75737420686176652061206d616e616765722100000000604482015290519081900360640190fd5b6000841180156200018c575060001984105b620001e3576040517f08c379a0000000000000000000000000000000000000000000000000000000008152600401808060200182810382526040815260200180620020326040913960400191505060405180910390fd5b82516200023c576040517f08c379a00000000000000000000000000000000000000000000000000000000081526004018080602001828103825260288152602001806200200a6028913960400191505060405180910390fd5b608084905282516200025690600390602086019062000324565b506004805492151560ff19938416179055600160058190556006805492151592909316919091179091556007555050600160a060020a03166000818152602081905260409020805460b060020a60ff021960a860020a60ff021960a060020a60ff0219600160a060020a03199093169094179190911674010000000000000000000000000000000000000000179290921675010000000000000000000000000000000000000000001791909116760100000000000000000000000000000000000000000000179055620003d0565b828054600181600116156101000203166002900490600052602060002090601f0160209004810192826200035c5760008555620003a7565b82601f106200037757805160ff1916838001178555620003a7565b82800160010185558215620003a7579182015b82811115620003a75782518255916020019190600101906200038a565b50620003b5929150620003b9565b5090565b5b80821115620003b55760008155600101620003ba565b608051611c24620003e660003950611c246000f3fe60806040526004361061016c576000357c010000000000000000000000000000000000000000000000000000000090048063a5ea719f116100d3578063c1923d911161008c578063c1923d91146105a7578063c8a2a9db146105bc578063e05b9341146105f7578063ec054eaa1461063a578063f06d1fa31461066d578063f3ae2415146106a057610218565b8063a5ea719f1461044d578063a6b0473914610477578063aa23e03d146104a9578063ac18de4314610533578063afa66e8a14610566578063b31c220d1461057b57610218565b80638d7e7e71116101255780638d7e7e711461032c5780638f180305146103675780638fabe4ff1461037c57806391abf42f146103ae578063a230c524146103d7578063a4293ead1461040a57610218565b80630b1ca49a1461021d57806320b2df7b146102525780632d06177a1461027c5780634655b144146102af5780635a197c78146102db5780638b62f7ec1461030557610218565b366102185733600090815260208190526040902054600160a060020a0316158015610199575060045460ff165b156101dc576040805160e560020a62461bcd0281526020600482015260196024820152600080516020611ace833981519152604482015290519081900360640190fd5b6040805133815234602082015281517fe1fffcc4923d04b559f4d29a8bfc6cda04eb5b0d3c460751c2402c5c5cc9109c929181900390910190a1005b600080fd5b34801561022957600080fd5b506102506004803603602081101561024057600080fd5b5035600160a060020a03166106d3565b005b34801561025e57600080fd5b506102506004803603602081101561027557600080fd5b5035610770565b34801561028857600080fd5b506102506004803603602081101561029f57600080fd5b5035600160a060020a0316610894565b3480156102bb57600080fd5b50610250600480360360208110156102d257600080fd5b50351515610956565b3480156102e757600080fd5b50610250600480360360208110156102fe57600080fd5b50356109c5565b34801561031157600080fd5b5061031a610b52565b60408051918252519081900360200190f35b34801561033857600080fd5b506102506004803603604081101561034f57600080fd5b50600160a060020a0381351690602001351515610b58565b34801561037357600080fd5b5061031a610c0f565b34801561038857600080fd5b506102506004803603604081101561039f57600080fd5b50803590602001351515610c15565b3480156103ba57600080fd5b506103c3610e23565b604080519115158252519081900360200190f35b3480156103e357600080fd5b506103c3600480360360208110156103fa57600080fd5b5035600160a060020a0316610e2c565b34801561041657600080fd5b5061031a6004803603606081101561042d57600080fd5b50600160a060020a03813581169160208101359091169060400135610e4f565b34801561045957600080fd5b5061031a6004803603602081101561047057600080fd5b503561101b565b34801561048357600080fd5b506102506004803603604081101561049a57600080fd5b5080359060200135151561106b565b3480156104b557600080fd5b506104be61113a565b6040805160208082528351818301528351919283929083019185019080838360005b838110156104f85781810151838201526020016104e0565b50505050905090810190601f1680156105255780820380516001836020036101000a031916815260200191505b509250505060405180910390f35b34801561053f57600080fd5b506102506004803603602081101561055657600080fd5b5035600160a060020a03166111d0565b34801561057257600080fd5b5061031a6112ac565b34801561058757600080fd5b506102506004803603602081101561059e57600080fd5b503515156112b2565b3480156105b357600080fd5b506103c3611321565b3480156105c857600080fd5b50610250600480360360408110156105df57600080fd5b50600160a060020a038135169060200135151561132a565b34801561060357600080fd5b506102506004803603606081101561061a57600080fd5b50600160a060020a038135169060208101351515906040013515156113df565b34801561064657600080fd5b506103c36004803603602081101561065d57600080fd5b5035600160a060020a03166114f6565b34801561067957600080fd5b506103c36004803603602081101561069057600080fd5b5035600160a060020a031661152e565b3480156106ac57600080fd5b506103c3600480360360208110156106c357600080fd5b5035600160a060020a0316611565565b3360009081526020819052604090205460a060020a900460ff1661072f576040805160e560020a62461bcd02815260206004820152601c6024820152600080516020611b71833981519152604482015290519081900360640190fd5b600160a060020a03166000908152602081905260409020805476ffffffffffffffffffffffffffffffffffffffffffffff1916905560058054600019019055565b33600090815260208190526040902054600160a060020a0316158015610798575060045460ff165b156107db576040805160e560020a62461bcd0281526020600482015260196024820152600080516020611ace833981519152604482015290519081900360640190fd5b600081815260016020526040902054600160a060020a031633146108335760405160e560020a62461bcd02815260040180806020018281038252605c815260200180611b15605c913960600191505060405180910390fd5b61083c8161158a565b600081815260016020908152604091829020548251600160a060020a03909116815290810183905281517f54f881ceaa7d7bb6bd8b29c415b5bb1c1df1ff0baafd709cb49aabd6e96ce1ea929181900390910190a150565b3360009081526020819052604090205460a060020a900460ff166108f0576040805160e560020a62461bcd02815260206004820152601c6024820152600080516020611b71833981519152604482015290519081900360640190fd5b600160a060020a038181166000908152602081905260409020541661091b5761091b816001806113df565b600160a060020a03166000908152602081905260409020805474ff0000000000000000000000000000000000000000191660a060020a179055565b3360009081526020819052604090205460a060020a900460ff166109b2576040805160e560020a62461bcd02815260206004820152601c6024820152600080516020611b71833981519152604482015290519081900360640190fd5b6006805460ff1916911515919091179055565b33600090815260208190526040902054600160a060020a03161580156109ed575060045460ff165b15610a30576040805160e560020a62461bcd0281526020600482015260196024820152600080516020611ace833981519152604482015290519081900360640190fd5b600081815260016020818152604092839020835160e0810185528154600160a060020a0390811682529382015484168184015260028201549093168385015260038101546060840152600481018054855181850281018501909652808652610b4f9592936080860193929190830182828015610ad557602002820191906000526020600020905b8154600160a060020a03168152600190910190602001808311610ab7575b5050505050815260200160058201805480602002602001604051908101604052809291908181526020018280548015610b3757602002820191906000526020600020905b8154600160a060020a03168152600190910190602001808311610b19575b505050505081526020016006820154815250506115fc565b50565b60085490565b3360009081526020819052604090205460a060020a900460ff16610bb4576040805160e560020a62461bcd02815260206004820152601c6024820152600080516020611b71833981519152604482015290519081900360640190fd5b600160a060020a03909116600090815260208190526040902080549115157601000000000000000000000000000000000000000000000276ff0000000000000000000000000000000000000000000019909216919091179055565b60055490565b33600090815260208190526040902054600160a060020a0316158015610c3d575060045460ff165b15610c80576040805160e560020a62461bcd0281526020600482015260196024820152600080516020611ace833981519152604482015290519081900360640190fd5b60008281526001602052604090208115610ccd576004810180546001810182556000918252602090912001805473ffffffffffffffffffffffffffffffffffffffff191633179055610d02565b6005810180546001810182556000918252602090912001805473ffffffffffffffffffffffffffffffffffffffff1916331790555b60065460ff1615610e1e576040805160e0810182528254600160a060020a0390811682526001840154811660208084019190915260028501549091168284015260038401546060830152600484018054845181840281018401909552808552610e1e9486936080860193919290830182828015610ad557602002820191906000526020600020908154600160a060020a03168152600190910190602001808311610ab7575050505050815260200160058201805480602002602001604051908101604052809291908181526020018280548015610b3757602002820191906000526020600020908154600160a060020a03168152600190910190602001808311610b1957505050505081526020016006820154815250506115fc565b505050565b60045460ff1690565b600160a060020a038181166000908152602081905260409020541615155b919050565b33600090815260208190526040812054600160a060020a0316158015610e77575060045460ff165b15610eba576040805160e560020a62461bcd0281526020600482015260196024820152600080516020611ace833981519152604482015290519081900360640190fd5b600160a060020a038316610f0a5730318210610f0a5760405160e560020a62461bcd028152600401808060200182810382526027815260200180611aa76027913960400191505060405180910390fd5b33600081815260026020908152604091829020805460018101909155825180830194909452600160a060020a0380891685850152871660608501526080840186905260a0808501919091528251808503909101815260c09093019091528151910120610f74611981565b338152600160a060020a0386811660208301528516604082015260608101849052610f9e8161169d565b33600081815260026020908152604091829020548251938452600160a060020a03808b1692850192909252908816838301526060830187905260001901608083015260a08201849052517ff9f2463254f3566eb206456e8b98a63c677e860a9a713e9a8f2084fd3cc62bbf9181900360c00190a150949350505050565b6000808211801561102d575060001982105b610e4a5760405160e560020a62461bcd028152600401808060200182810382526032815260200180611bbd6032913960400191505060405180910390fd5b3360009081526020819052604090205460a060020a900460ff166110c7576040805160e560020a62461bcd02815260206004820152601c6024820152600080516020611b71833981519152604482015290519081900360640190fd5b60055482111580156110d95750600082115b6111175760405160e560020a62461bcd028152600401808060200182810382526027815260200180611aee6027913960400191505060405180910390fd5b80156111305761112860055461101b565b600755611136565b60078290555b5050565b60038054604080516020601f60026000196101006001881615020190951694909404938401819004810282018101909252828152606093909290918301828280156111c65780601f1061119b576101008083540402835291602001916111c6565b820191906000526020600020905b8154815290600101906020018083116111a957829003601f168201915b5050505050905090565b3360009081526020819052604090205460a060020a900460ff1661122c576040805160e560020a62461bcd02815260206004820152601c6024820152600080516020611b71833981519152604482015290519081900360640190fd5b33600160a060020a03821614156112775760405160e560020a62461bcd02815260040180806020018281038252602c815260200180611b91602c913960400191505060405180910390fd5b600160a060020a03166000908152602081905260409020805474ff000000000000000000000000000000000000000019169055565b60075490565b3360009081526020819052604090205460a060020a900460ff1661130e576040805160e560020a62461bcd02815260206004820152601c6024820152600080516020611b71833981519152604482015290519081900360640190fd5b6004805460ff1916911515919091179055565b60065460ff1690565b3360009081526020819052604090205460a060020a900460ff16611386576040805160e560020a62461bcd02815260206004820152601c6024820152600080516020611b71833981519152604482015290519081900360640190fd5b600160a060020a039091166000908152602081905260409020805491151575010000000000000000000000000000000000000000000275ff00000000000000000000000000000000000000000019909216919091179055565b3360009081526020819052604090205460a060020a900460ff1661143b576040805160e560020a62461bcd02815260206004820152601c6024820152600080516020611b71833981519152604482015290519081900360640190fd5b600160a060020a03929092166000818152602081905260409020805473ffffffffffffffffffffffffffffffffffffffff191690911775ff00000000000000000000000000000000000000000019167501000000000000000000000000000000000000000000921515929092029190911776ff00000000000000000000000000000000000000000000191676010000000000000000000000000000000000000000000092151592909202919091179055600580546001019055565b600160a060020a0316600090815260208190526040902054760100000000000000000000000000000000000000000000900460ff1690565b600160a060020a03166000908152602081905260409020547501000000000000000000000000000000000000000000900460ff1690565b600160a060020a031660009081526020819052604090205460a060020a900460ff1690565b60008181526001602081905260408220805473ffffffffffffffffffffffffffffffffffffffff19908116825591810180548316905560028101805490921690915560038101829055906115e160048301826119bc565b6115ef6005830160006119bc565b6006820160009055505050565b60075481608001515110611618576116138161175c565b610b4f565b60075460a08201515160055461162d91611788565b1015610b4f576116408160c0015161158a565b60c0810180516000908152600160209081526040918290205492518251600160a060020a0390941684529083015280517f54f881ceaa7d7bb6bd8b29c415b5bb1c1df1ff0baafd709cb49aabd6e96ce1ea9281900390910190a150565b60c08101516000908152600160208181526040928390208451815473ffffffffffffffffffffffffffffffffffffffff19908116600160a060020a0392831617835583870151948301805482169583169590951790945593850151600282018054909416941693909317909155606083015160038301556080830151805184939261172f9260048501929101906119da565b5060a0820151805161174b9160058401916020909101906119da565b5060c0820151816006015590505050565b6040810151600160a060020a031661177b576116138160c001516117d1565b610b4f8160c00151610b4f565b60006117ca83836040518060400160405280601e81526020017f536166654d6174683a207375627472616374696f6e206f766572666c6f7700008152506118e7565b9392505050565b600081815260016020526040902060030154303110156118255760405160e560020a62461bcd028152600401808060200182810382526045815260200180611a626045913960600191505060405180910390fd5b6000818152600160208190526040808320918201546003909201549051600160a060020a039092169281156108fc029290818181858888f19350505050158015611873573d6000803e3d6000fd5b5060008181526001602081815260408084208054908401548251600160a060020a03928316815291169281019290925281810193909352606081019190915290517f7427e39cb4ad06d6ae77b0b3f675e6f0d0604cfb1d6886fefcda32ac46421ae29181900360800190a1610b4f8161158a565b600081848411156119795760405160e560020a62461bcd0281526004018080602001828103825283818151815260200191508051906020019080838360005b8381101561193e578181015183820152602001611926565b50505050905090810190601f16801561196b5780820380516001836020036101000a031916815260200191505b509250505060405180910390fd5b505050900390565b6040805160e08101825260008082526020820181905291810182905260608082018390526080820181905260a082015260c081019190915290565b5080546000825590600052602060002090810190610b4f9190611a4c565b828054828255906000526020600020908101928215611a3c579160200282015b82811115611a3c578251825473ffffffffffffffffffffffffffffffffffffffff1916600160a060020a039091161782556020909201916001909101906119fa565b50611a48929150611a4c565b5090565b5b80821115611a485760008155600101611a4d56fe436172696e6720286578656375746545746865725478293a2043616e6e6f74207769746864726177206d6f7265207468616e2074686572652061637475616c6c7920697321436172696e673a20496e73756666696369656e742066756e647320746f20776974686472617721436172696e673a204d7573742062652061206d656d6265722100000000000000436172696e673a20496e76616c6964206d696e696d756d206d756c74692d7369676e6174757265436172696e6720286d616e75616c43616e63656c5472616e73666572293a204d75737420626520746865206d656d62657220696e6974696174696e6720746865207472616e73666572207265717565737420746f2063616e63656c21436172696e673a204d75737420626520746865206d616e616765722100000000436172696e673a2043616e6e6f742072656d6f7665206d616e616765722066726f6d20796f757273656c6621436172696e6720287375676765737465645369676e657273293a20496e76616c696420275f636f756e74272076616c756521a264697066735822122023f55affffbe7474b7b0914e2ddb570212685a6302f625b2d7ca7d9b9611cc3064736f6c63430007040033436172696e673a204d7573742068617665206120636f6e7472616374206964656e74696669657221436172696e673a204d7573742068617665206174206c65617374206f6e65206d616e6167657220287468697320696e636c7564657320796f757273656c662921",
  "immutableReferences": {},
  "source": "// SPDX-License-Identifier: MIT\r\n// Project Sharing by Alpha Serpentis Developments - https://github.com/Alpha-Serpentis-Developments\r\n// Written by Amethyst C. \r\n\r\npragma solidity ^0.7.4;\r\n\r\nimport \"../math/SafeMath.sol\";\r\n\r\nstruct TransferRequest {\r\n    address member; // Address of the member requesting\r\n    address payable to; // Address of the receiving party\r\n    address token; // If applicable\r\n    uint256 amount; // Amount of tokens withdrawing\r\n    address[] approved; // Current approvals\r\n    address[] rejected; // Current rejected\r\n    bytes32 ident; // The identifier of the TransferRequest\r\n}\r\n\r\nstruct Member {\r\n    address adr; // Address of the member\r\n    bool isManager; // Is a manager of the wallet\r\n    bool allowedToDeposit; // Is allowed to deposit\r\n    bool allowedToWithdraw; // Is allowed to withdraw\r\n}\r\n\r\ncontract Caring {\r\n    \r\n    using SafeMath for uint256;\r\n\r\n    mapping(address => Member) private members;\r\n    mapping(bytes32 => TransferRequest) private pendingOutbound;\r\n    mapping(address => uint256) private userNonce;\r\n\r\n    uint256 immutable MAX_ALLOWED_MANAGERS;\r\n\r\n    string private identifier;\r\n    \r\n    bool private onlyMembersDeposit;\r\n    uint256 private totalMembers;\r\n    \r\n    bool private multiSig;\r\n    uint256 private minimumSig;\r\n    uint256 private pendingTransfers;\r\n    \r\n    // Events\r\n    \r\n    event Deposit(address _from, uint256 amount);\r\n    event PendingTransfer(address _from, address _to, address _token, uint256 _amount, uint256 _nonce, bytes32 _transferId);\r\n    event TransferCancelled(address _from, bytes32 _transferId);\r\n    event TransferExecute(address _from, address _to, address _token, bool _success);\r\n    event Withdrawal(address _from, address _to, uint256 _amount);\r\n    \r\n    modifier onlyManager {\r\n        if(!members[msg.sender].isManager) {\r\n            revert(\"Caring: Must be the manager!\");\r\n        }\r\n        _;\r\n    }\r\n    modifier onlyMember {\r\n        if((members[msg.sender].adr == address(0)) && onlyMembersDeposit) {\r\n            revert(\"Caring: Must be a member!\");\r\n        }\r\n        _;\r\n    }\r\n    \r\n    constructor(address _manager, uint256 _maxManagers, string memory _contractName, bool _onlyMembersDeposit, bool _multiSig) {\r\n        require(_manager != address(0), \"Caring: Must have a manager!\");\r\n        require(_maxManagers > 0 && _maxManagers < (2**256) - 1, \"Caring: Must have at least one manager (this includes yourself)!\");\r\n        require(bytes(_contractName).length != 0, \"Caring: Must have a contract identifier!\");\r\n        \r\n        MAX_ALLOWED_MANAGERS = _maxManagers;\r\n        identifier = _contractName;\r\n        onlyMembersDeposit = _onlyMembersDeposit;\r\n        totalMembers = 1;\r\n        \r\n        multiSig = _multiSig;\r\n        minimumSig = 1;\r\n        \r\n        members[_manager].adr = _manager;\r\n        members[_manager].isManager = true;\r\n        members[_manager].allowedToDeposit = true;\r\n        members[_manager].allowedToWithdraw = true;\r\n    }\r\n    \r\n    receive() payable external onlyMember() { // This does not reject mined Ether or from a selfdestruct\r\n        emit Deposit(msg.sender, msg.value);\r\n    }\r\n    \r\n    // INTERNAL FUNCTIONS\r\n    function verifyMultiSig(TransferRequest memory _tx) internal {\r\n        if(_tx.approved.length >= minimumSig) {// If passes definitely, execute transfer\r\n            executeSomeTx(_tx);\r\n        } else if(totalMembers.sub(_tx.rejected.length) < minimumSig) { // If fails definitely, cancel the transfer\r\n            removePendingTx(_tx.ident);\r\n\r\n            emit TransferCancelled(pendingOutbound[_tx.ident].member, _tx.ident);\r\n        }\r\n    }\r\n    function addPendingTx(TransferRequest memory _tx) internal {\r\n        pendingOutbound[_tx.ident] = _tx;\r\n    }\r\n    function removePendingTx(bytes32 _ident) internal {\r\n        delete pendingOutbound[_ident];\r\n    }\r\n    function executeSomeTx(TransferRequest memory _tx) internal {\r\n        if(_tx.token == address(0))\r\n            executeEtherTx(_tx.ident);\r\n        else\r\n            executeTokenTx(_tx.ident);\r\n    }\r\n    function executeEtherTx(bytes32 _ident) internal {\r\n        require(pendingOutbound[_ident].amount <= address(this).balance, \"Caring (executeEtherTx): Cannot withdraw more than there actually is!\");\r\n        pendingOutbound[_ident].to.transfer(pendingOutbound[_ident].amount);\r\n\r\n        emit TransferExecute(pendingOutbound[_ident].member, pendingOutbound[_ident].to, address(0), true);\r\n        removePendingTx(_ident);\r\n    }\r\n    function executeTokenTx(bytes32 _ident) internal {\r\n\r\n    }\r\n    \r\n    // TRANSFER FUNCTIONS\r\n    \r\n    function requestTransfer(address payable _to, address _token, uint256 _amount) public onlyMember returns(bytes32) {\r\n        if(_token == address(0))\r\n            require(address(this).balance > _amount, \"Caring: Insufficient funds to withdraw!\");\r\n        \r\n        bytes32 transferId = keccak256(abi.encode(\r\n            msg.sender, \r\n            _to, \r\n            _token, \r\n            _amount,\r\n            userNonce[msg.sender]++\r\n            ));\r\n        TransferRequest memory transferReq;\r\n        \r\n        transferReq.member = msg.sender;\r\n        transferReq.to = _to;\r\n        transferReq.token = _token;\r\n        transferReq.amount = _amount;\r\n        \r\n        addPendingTx(transferReq);\r\n        emit PendingTransfer(msg.sender, _to, _token, _amount, userNonce[msg.sender] - 1, transferId);\r\n        \r\n        return transferId;\r\n    }\r\n    function approveTransfer(bytes32 _index, bool _approve) public onlyMember {\r\n        TransferRequest storage transferReq;\r\n        transferReq = pendingOutbound[_index];\r\n        \r\n        // Approve or deny the transaction\r\n        if(_approve) {\r\n            transferReq.approved.push(msg.sender);\r\n        } else {\r\n            transferReq.rejected.push(msg.sender);\r\n        }\r\n        // Check if able to execute or has failed the 51%+ requirement\r\n        if(multiSig)\r\n            verifyMultiSig(transferReq);\r\n\r\n    }\r\n    function attemptTransfer(bytes32 _index) public onlyMember {\r\n        verifyMultiSig(pendingOutbound[_index]);\r\n    }\r\n    function manualCancelTransfer(bytes32 _index) public onlyMember {\r\n        require(pendingOutbound[_index].member == msg.sender, \"Caring (manualCancelTransfer): Must be the member initiating the transfer request to cancel!\");\r\n        removePendingTx(_index);\r\n        emit TransferCancelled(pendingOutbound[_index].member, _index);\r\n    }\r\n    \r\n    // MEMBER MANAGEMENT FUNCTIONS\r\n    \r\n    function addMember(address _member, bool _allowDeposit, bool _allowWithdrawal) public onlyManager {\r\n        members[_member].adr = _member;\r\n        members[_member].allowedToDeposit = _allowDeposit;\r\n        members[_member].allowedToWithdraw = _allowWithdrawal;\r\n        \r\n        totalMembers++;\r\n    }\r\n    function removeMember(address _member) public onlyManager {\r\n        delete members[_member];\r\n        \r\n        totalMembers--;\r\n    }\r\n    function addManager(address _newManager) public onlyManager {\r\n        // require(MAX_ALLOWED_MANAGERS);\r\n        if(members[_newManager].adr == address(0)) {\r\n            addMember(_newManager, true, true);\r\n        }\r\n        \r\n        members[_newManager].isManager = true;\r\n    }\r\n    function removeManager(address _manager) public onlyManager {\r\n        require(msg.sender != _manager, \"Caring: Cannot remove manager from yourself!\");\r\n        \r\n        members[_manager].isManager = false;\r\n    }\r\n    \r\n    // SIMPLE SETTER FUNCTIONS\r\n    \r\n    function setMemberAllowedToDeposit(address _member, bool _allowed) public onlyManager {\r\n        members[_member].allowedToDeposit = _allowed;\r\n    }\r\n    function setMemberAllowedToWithdraw(address _member, bool _allowed) public onlyManager {\r\n        members[_member].allowedToWithdraw = _allowed;\r\n    }\r\n    function setOnlyMemberDeposit(bool _allow) public onlyManager {\r\n        onlyMembersDeposit = _allow;\r\n    }\r\n    function setMultiSig(bool _enable) public onlyManager {\r\n        multiSig = _enable;\r\n    }\r\n    function setMinimumMultiSig(uint256 _amount, bool _useSuggested) public onlyManager {\r\n        require(_amount <= totalMembers && _amount > 0, \"Caring: Invalid minimum multi-signature\");\r\n\r\n        if(_useSuggested)\r\n            minimumSig = suggestedSigners(totalMembers);\r\n        else\r\n            minimumSig = _amount; // This does NOT check if it passes a 50%...\r\n    }\r\n\r\n    // MISC FUNCTIONS\r\n\r\n    function suggestedSigners(uint256 _count) public pure returns(uint256) {\r\n        require(_count > 0 && _count < (2**256) - 1, \"Caring (suggestedSigners): Invalid '_count' value!\");\r\n\r\n        \r\n    }\r\n    \r\n    // VIEW FUNCTIONS\r\n    \r\n    function getIdentifier() public view returns(string memory) {\r\n        return identifier;\r\n    }\r\n    function isOnlyMemberDeposits() public view returns(bool) {\r\n        return onlyMembersDeposit;\r\n    }\r\n    function getTotalMembers() public view returns(uint256) {\r\n        return totalMembers;\r\n    }\r\n    function isMultiSig() public view returns(bool) {\r\n        return multiSig;\r\n    }\r\n    function getMinimumSig() public view returns(uint256) {\r\n        return minimumSig;\r\n    }\r\n    function getPendingTransferCount() public view returns(uint256) {\r\n        return pendingTransfers;\r\n    }\r\n    function isMember(address _address) public view returns(bool) {\r\n        return members[_address].adr != address(0);\r\n    }\r\n    function isMemberAllowedToDeposit(address _address) public view returns(bool) {\r\n        return members[_address].allowedToDeposit;\r\n    }\r\n    function isMemberAllowedToWithdraw(address _address) public view returns(bool) {\r\n        return members[_address].allowedToWithdraw;\r\n    }\r\n    function isManager(address _address) public view returns(bool) {\r\n        return members[_address].isManager;\r\n    }\r\n    \r\n}\r\n",
  "sourcePath": "D:\\GitHub\\Project-Sharing\\contracts\\caring\\Caring.sol",
  "compiler": {
    "name": "solc",
    "version": "0.7.4+commit.3f05b770.Emscripten.clang"
  },
  "schemaVersion": "3.3.2",
  "updatedAt": "2020-12-07T03:52:56.289Z",
  "devdoc": {
    "kind": "dev",
    "methods": {},
    "version": 1
  },
  "userdoc": {
    "kind": "user",
    "methods": {},
    "version": 1
  }
}